:020000040800F2
:10000000F8070020C51500087102000873020008F7
:10001000770200087B0200087F0200080000000051
:100020000000000000000000000000008302000843
:10003000850200080000000087020008890200080D
:10004000DF150008DF150008DF150008DF150008C0
:10005000DF150008DF150008DF1500084905000856
:1000600077050008A5050008D3050008DF1500087E
:10007000DF150008DF150008DF150008DF15000890
:10008000DF150008DF150008DF150008DF15000880
:10009000DF150008DF150008DF150008DF15000870
:1000A000DF1500085B070008DF150008DF150008F2
:1000B000DF150008DF150008DF150008DF15000850
:1000C000DF150008DF150008DF150008DF15000840
:1000D000DF1500083B150008DF150008DF150008D4
:1000E000DF150008DF150008DF150008DF15000820
:1000F000DF150008DF150008DF150008DF15000810
:10010000DF150008DF150008DF150008DF150008FF
:10011000DF150008DF150008DF150008DF150008EF
:10012000DF150008DF150008DF150008DF150008DF
:10013000DF150008DF150008DF150008DF150008CF
:10014000DF150008DF150008DF150008DF150008BF
:10015000DF150008DF150008DF150008DF150008AF
:10016000DF150008DF150008DF150008DF1500089F
:10017000DF150008DF150008DF150008DF1500088F
:10018000DF150008DF15000800F002F800F04CF859
:100190000AA090E8000C82448344AAF10107DA45E2
:1001A00001D100F041F8AFF2090EBAE80F0013F0E8
:1001B000010F18BFFB1A43F00103184780600000CD
:1001C000A0600000103A24BF78C878C1FAD852075E
:1001D00024BF30C830C144BF04680C6070470000C1
:1001E0000023002400250026103A28BF78C1FBD840
:1001F000520728BF30C148BF0B607047662905F021
:10020000CA86642903F05480002070471FB505F0AA
:10021000BDFE03F08DFB04000020002105F0FCF87A
:10022000E0601FBD10B510BD03F08AFC1146FFF75A
:10023000EDFF00F008F803F0A8FC03B4FFF7F2FFAD
:1002400003BC01F01BF94FF4A06001F0DBF9A8201A
:1002500001F092F84FF4E13001F01DF900F01EF9C1
:100260005321012000F048FA00F0CAF900BFFEE770
:10027000704700BFFEE700BFFEE700BFFEE700BF1C
:10028000FEE7704770477047704700000CB50020CC
:10029000019000907648006840F48030744908600E
:1002A00000BF7348006800F4003000900198401CC3
:1002B0000190009818B90198B0F5A04FF1D16C48A1
:1002C000006800F4003010B10120009001E000202F
:1002D00000900098012846D165484030006840F001
:1002E00080506349403108606248006840F44040F3
:1002F000604908605E48083000685D490831086060
:100300000846006840F4004008600846006840F471
:10031000A05008605848091F0860081F006840F096
:100320008070091F086000BF5148006800F000702D
:100330000028F9D040F20570504908604C48083058
:10034000006820F003004A49083108600846006848
:1003500040F00200086000BF45480830006800F027
:100360000C000828F8D10CBD10B54548006840F4D1
:100370007000434908603E48006840F001003C4975
:10038000086000203A4908310860394800683D4952
:100390000840374908603C48091D0860081F00688C
:1003A00020F48020091F0860002031490C310860CA
:1003B000FFF76CFF4FF0006031498039086010BDD5
:1003C00070B500200022022300240221284D0835A8
:1003D0002D6805F00C0020B1042806D0082834D17F
:1003E00007E02A4D2A4E356033E02A4D284E35600D
:1003F0002FE01F4D2D1D2D68C5F380541C4D2D1D64
:100400002D6805F03F0154B1224DB5FBF1F5184EB2
:10041000361D3668C6F3881605FB06F209E01B4D4B
:10042000B5FBF1F5124E361D3668C6F3881605FB8E
:1004300006F20F4D2D1D2D68C5F301456D1C6B0097
:10044000B2FBF3F5124E356003E0104D104E3560EF
:1004500000BF00BF064D08352D68C5F303150E4ECD
:10046000705D0B4D2D68C540094E356070BD0000B4
:10047000003802400070004008544007003C024031
:1004800088ED00E0FFFFF6FE103000240024F400A9
:100490000000002000127A00040000201CB5012199
:1004A000202001F0CBFC4FF4C060009001208DF8BB
:1004B000040000208DF8060003208DF805000120BF
:1004C0008DF807006946044801F092F94FF4C061C5
:1004D000014801F009FA1CBD001402401CB50121BD
:1004E000112001F0ABFC1E20009000208DF80400CC
:1004F00003208DF8050001208DF8070069460548A6
:1005000001F076F9012000906946034801F070F986
:100510001CBD000000100240000002406F4800684F
:1005200020F002006D4908600846006820F00400D1
:1005300008600846006820F0080008600846006867
:1005400020F010000860704710B50221644801F0E7
:10055000B1F960B963480068634908605F480068A2
:1005600020F002005D49086001205F490871022007
:1005700001F081FA10BD10B50421594801F09AF933
:1005800060B958480068594908605448006820F02C
:10059000040052490860012054490871042001F008
:1005A0006AFA10BD10B508214D4801F083F960B911
:1005B0004C4800684E4908604848006820F0080030
:1005C0004649086001204A490871082001F053FAA1
:1005D00010BD10B51021424801F06CF960B94148D6
:1005E0000068444908603D48006820F010003B491D
:1005F000086001203F490871102001F03CFA10BD4D
:100600000EB5FFF76BFF0121880301F071FC01219A
:10061000042001F078FD0221042001F074FD032183
:10062000042001F070FD0421084601F06CFD022059
:10063000009000208DF804000C208DF805000120AA
:100640008DF80600684601F0A5F91C2000900020F6
:100650008DF804000C208DF8050001208DF80600AF
:10066000684601F097F907208DF8080002208DF800
:10067000090000208DF80A0001208DF80B0002A867
:1006800000F0C5FF08208DF8080002208DF8090051
:100690008DF80A0001208DF80B0002A800F0B7FFCA
:1006A00009208DF8080002208DF8090001208DF83E
:1006B0000A008DF80B0002A800F0A9FF0A208DF8AF
:1006C000080002208DF8090003208DF80A0001209F
:1006D0008DF80B0002A800F09AFF0EBD003C01400F
:1006E0000010024034000020140000201C000020F4
:1006F000240000202C0000207FB505460C46012177
:10070000084601F0F5FB19208DF8000001208DF856
:10071000030003208DF801008DF80200684600F008
:1007200076FF0295ADF804400020ADF80C00ADF85E
:1007300006008DF80E0001A93A4801F0F4FF0121EE
:10074000384802F0A5FC01221146364802F08CFC24
:100750000121344802F070F87FBD1CB501213148F9
:1007600002F099FC00285CD02F48007900284FD077
:100770002E48007900284BD02D480079002847D01A
:100780002C480079002843D02A4800680090284867
:100790000368264802682448016827A002F068FD23
:1007A0002A4800F06CFB294890ED060B8DED000BFC
:1007B00090ED041BB0EE410AF0EE610A53EC102BF1
:1007C00023A1294802F060FD4FF42F7000F036FE9F
:1007D0000020264908601449087114490871144919
:1007E0000871144908712248006840F0020020494D
:1007F00008600846006840F0040008600846006889
:1008000040F0080008600846006840F010000860EA
:100810000121044802F050FC14480068401C1349B0
:1008200008601CBD00000140140000201C000020D6
:10083000240000202C00002025642C2025642C207E
:1008400025642C2025642C0D0A000000880000205F
:100850007B22646973223A25662C22616E67223AF4
:1008600025667D0D0A0000005400002034000020A1
:10087000003C014000B52DED108B8BB0B0EE408AEE
:10088000F0EE608AB0EE41AAF0EE61AAB0EE429AB4
:10089000F0EE629A53EC1A2B51EC1A0B05F080F82B
:1008A00041EC1E0B53EC192B51EC190B05F078F8A9
:1008B00041EC1F0B53EC1E2B05F07EFA53EC182B6A
:1008C000CDE9000151EC180B05F06AF841EC1E0B64
:1008D00053EC192B51EC190B05F062F841EC1F0B8E
:1008E00053EC1E2B05F068FA41EC1D0B9DED000B3F
:1008F00053EC102B05F054F853EC182BCDE9040100
:1009000051EC180B05F04CF8CDE902019DED040BFC
:1009100053EC102B9DED020B51EC100B04F052FE2A
:1009200041EC1B0B53EC1A2B51EC1A0B05F038F869
:1009300041EC1D0B53EC1D2B9FEDFE0B51EC100BEE
:1009400004F040FE41EC1C0B53EC1B2B05F034FA79
:1009500053EC1A2BCDE9080151EC1A0B05F020F8E5
:1009600041EC1E0B53EC192B51EC190B05F018F848
:1009700041EC1F0B53EC1E2B05F01EFA41EC1C0B37
:1009800053EC182B51EC180B05F00AF841EC1D0B39
:1009900053EC1C2B04F016FE41EC1B0B9FEDE50BFA
:1009A00053EC102B04F05AFDCDE906019DED080B28
:1009B00053EC102B9DED060B51EC100B04F002FED6
:1009C000DE4AC2E90201104690ED021BB0EE410A78
:1009D000F0EE610A04F08AF8D84880ED020B53EC7F
:1009E000182B51EC180B04F0DBFF41EC1F0B53EC00
:1009F000192B51EC190B04F0D3FF53EC1F2BCDE94D
:100A000006019DED060B51EC100B05F0D5F941ECFC
:100A10001E0BCA4890ED022BB0EE420AF0EE620ABD
:100A200090ED022BB0EE421AF0EE621A53EC102B4E
:100A300051EC110B04F0B4FF53EC1E2BCDE908016F
:100A40009DED080B51EC100B04F0BCFD41EC1D0BAF
:100A50009FEDB80B53EC102B04F000FD41EC1C0B88
:100A600053EC182B04F09CFF41EC1B0B53EC182BA0
:100A700004F096FFB14A03C2B04890ED001BB0EEFF
:100A8000410AF0EE610A04F031F8AC4880ED000B49
:100A900090ED001BB0EE410AF0EE610A9FEDA81B3D
:100AA00053EC112B51EC100B05F086F9A34A03C24D
:100AB000A24890ED021BB0EE410AF0EE610A9FEDF4
:100AC000A01B53EC112B51EC100B05F075F99B4A50
:100AD000C2E90201104690ED022BB0EE420AF0EEA0
:100AE000620A90ED022BB0EE421AF0EE621A53EC5D
:100AF000102B51EC110B04F053FF41EC1C0B8F48F1
:100B000090ED002BB0EE420AF0EE620A90ED002B61
:100B1000B0EE421AF0EE621A53EC102B51EC110BAE
:100B200004F03EFF41EC1D0B53EC1C2B04F096FC33
:100B300041EC1B0BB0EE4B0AF0EE6B0A03F0D6FF54
:100B40007E4880ED040B53EC1A2B51EC180B05F08A
:100B500025F83AD2794890ED042BB0EE420AF0EE37
:100B6000620A90ED002BB0EE421AF0EE621A53ECDE
:100B7000102B51EC110B04F025FD41EC1E0BB0EED7
:100B80004E0AF0EE6E0A03F02BFCB0EE40DAF0EE07
:100B900060DA9FED6D0B53EC102B51EC1D0B05F043
:100BA0000BF941EC1C0B9FED6A0B53EC102B04F07E
:100BB00009FD41EC1B0B9FED680B53EC102B04F06F
:100BC000EFFE5E4AC2E9060139E05C4890ED042B75
:100BD000B0EE420AF0EE620A90ED002BB0EE421A3F
:100BE000F0EE621A53EC102B51EC110B04F0EAFCFE
:100BF00041EC1E0BB0EE4E0AF0EE6E0A03F0F0FB75
:100C0000B0EE40DAF0EE60DA9FED4F0B53EC102BB4
:100C100051EC1D0B04F0F8FF41EC1C0B9FED4C0B4D
:100C200053EC102B04F0CEFC41EC1B0B9FED4A0B58
:100C300053EC102B04F0B4FE404AC2E906010BB09D
:100C4000BDEC108B00BD00B52DED108B87B0B0EE64
:100C5000408AF0EE608AB0EE419AF0EE619AB0EE12
:100C600042AAF0EE62AA53EC192B51EC180B04F0D7
:100C700095FF56D253EC192B51EC190B04F090FE52
:100C800053EC1A2BCDE9020151EC1A0B04F088FE4B
:100C9000CDE900019DED020B53EC102B9DED000BF7
:100CA00051EC100B05F088F841EC1F0BB0EE4F0A29
:100CB000F0EE6F0A03F01AFFB0EE40EAF0EE60EAE1
:100CC00053EC192B51EC1E0B04F07CFC41EC1D0B7A
:100CD000B0EE4D0AF0EE6D0A03F02EFDB0EE40CA04
:100CE000F0EE60CA9FED180B53EC102B51EC1C0B6F
:100CF00005F062F89FED160B53EC102BCDE90401C3
:100D00009DED040B51EC100B04F05CFC41EC1B0B53
:100D10009FED110B53EC102B04F042FE074AC2E981
:100D2000060153EC192B51EC180B04F0FDFD6ED8A5
:100D300016E00000000000000000F03F88000020E6
:100D4000F67AF7C77BAD31404AD8124DFB21E93F17
:100D50004AD8124DFB210940000000000080664087
:100D600053EC182B51EC180B04F01AFE53EC1A2B11
:100D7000CDE9020151EC1A0B04F012FECDE900019D
:100D80009DED020B53EC102B9DED000B51EC100B65
:100D900005F012F841EC1F0BB0EE4F0AF0EE6F0AAF
:100DA00003F0A4FEB0EE40EAF0EE60EA53EC182B3C
:100DB00051EC1E0B04F006FC41EC1D0BB0EE4D0A8D
:100DC000F0EE6D0A03F0B8FCB0EE40CAF0EE60CA77
:100DD0001FED230B53EC102B51EC1C0B04F014FFF4
:100DE00041EC1B0B1FED260B53EC102B04F0EAFB20
:100DF0001FED270B53EC102BCDE904019DED040BE7
:100E000051EC100B04F0CCFDFE4AC2E90601FD488E
:100E100090ED061BB0EE410AF0EE610A03F05CFEB5
:100E2000B0EE40EAF0EE60EA1FED350B53EC102B0C
:100E300051EC1E0B04F0C6FB41EC1D0B1FED3C0BEF
:100E400053EC102B04F0ACFD41EC1C0BB0EE4C0A43
:100E5000F0EE6C0A03F0DCFDB0EE40BAF0EE60BAE2
:100E600053EC1B2B9FEDE80B51EC100B04F0AAFB8D
:100E7000E44AC2E9040107B0BDEC108B00BD10B517
:100E80002DED0A8B82B004469FEDE10B84ED100B33
:100E9000E1480068E149096888427BDDE048006874
:100EA000E04909688842F8DDDB490968DB4A1268D5
:100EB000881A04F00EFD41EC1A0B9FEDDB0B53EC8E
:100EC000102B04F06DFD41EC190B9FEDD90B53EC89
:100ED000102B04F077FB41EC180B9FEDD70B53EC74
:100EE000102B04F06FFBC4E90C01CD490968CD4A11
:100EF0001268881A04F0EDFC41EC1A0B9FEDCA0B46
:100F000053EC102B04F04CFD41EC190B9FEDC80B7A
:100F100053EC102B04F056FB41EC180B9FEDC60B65
:100F200053EC102B04F04EFBC4E90E0194ED0C1BA6
:100F3000B0EE410AF0EE610A53EC102B9FEDC01B9E
:100F400051EC110B04F0F0FC7ED294ED0C1BB0EED2
:100F5000410AF0EE610A9FEDBC1B53EC112B51ECE2
:100F6000100B04F0E1FCEFD294ED0E1BB0EE410A41
:100F7000F0EE610A53EC102B9FEDB11B51EC110BFD
:100F800004F0D2FCE0D294ED0E1BB0EE410AF0EE7C
:100F9000610A00E0C3E19FEDAC1B53EC112B51EC57
:100FA000100B04F0C1FCCFD294ED0E2BB0EE420A30
:100FB000F0EE620A94ED0C2BB0EE421AF0EE621ADB
:100FC00053EC102B51EC110B04F0E8FD7AD294EDA8
:100FD0000E2BB0EE420AF0EE620A94ED0E2BB0EE4C
:100FE000421AF0EE621A53EC102B51EC110B04F084
:100FF000D7FC41EC1B0B94ED102BB0EE420AF0EE47
:10100000620A94ED102BB0EE421AF0EE621A53EC25
:10101000102B51EC110B04F0C3FC41EC1C0B53ECF6
:101020001B2B04F0C9FE41EC1A0B94ED0E1BB0EE25
:10103000410AF0EE610A53EC102B04F0C3FA41ECC4
:10104000180B94ED0C2B00E047E1B0EE420AF0EEF5
:10105000620A94ED0C2BB0EE421AF0EE621A53ECD9
:10106000102B51EC110B04F09BFC41EC1B0B94ED8D
:10107000102BB0EE420AF0EE620A94ED102BB0EEA7
:10108000421AF0EE621A53EC102B51EC110B04F0E3
:1010900087FC41EC1C0B53EC1B2B04F08DFE41EC48
:1010A0001A0B94ED0C1BB0EE410AF0EE610A53EC02
:1010B000102B04F087FA41EC190B53EC182B04F0B9
:1010C0006DFD7DD394ED0E2BB0EE420AF0EE620A78
:1010D00094ED0C2BB0EE421AF0EE621A53EC102B8A
:1010E00051EC110B04F020FC6BD294ED0E2BB0EE02
:1010F000420AF0EE620A94ED0E2BB0EE421AF0EEC8
:10110000621A53EC102B51EC110B04F049FC41EC2A
:101110001B0B94ED102BB0EE420AF0EE620A94ED38
:10112000102BB0EE421AF0EE621A53EC102B51EC79
:10113000110B04F035FC41EC1C0B53EC1B2B04F0A1
:101140003BFE41EC1A0B94ED0E1BB0EE410AF0EEA3
:10115000610A53EC102B04F035FA41EC180B94EDB6
:101160000C2BB0EE420AF0EE620A94ED0C2BB0EEBE
:10117000421AF0EE621A53EC102B51EC110B04F0F2
:101180000FFC41EC1B0B94ED102BB0EE420AF0EE7D
:10119000620A94ED102BB0EE421AF0EE621A53EC94
:1011A000102B51EC110B04F0FBFB41EC1C0B53EC2E
:1011B0001B2B04F001FE41EC1A0B94ED0C1B01E01B
:1011C0000FE04DE0B0EE410AF0EE610A53EC102B57
:1011D00004F0F8F941EC190B53EC182B04F0A4FBC4
:1011E0003ED294ED103BB0EE432AF0EE632A94ED2C
:1011F0000E3BB0EE431AF0EE631A94ED0C3BB0EEEA
:10120000430A25E088000020000000000030714003
:1012100000000000008041401C000020140000205D
:101220002C000020240000200000000000FEE04010
:101230000000000080842E410000000000000040FB
:10124000CBDB114E0BD62340116DC7D45DF340406C
:10125000F0EE630AFFF70EFB32A002F009F840E05F
:1012600094ED0C1BB0EE410AF0EE610A1FED0A1B73
:1012700053EC112B51EC100B04F056FB0ED394EDF4
:101280000E1BB0EE410AF0EE610A1FED111B53EC8C
:10129000112B51EC100B04F047FB17D294ED103BCF
:1012A000B0EE432AF0EE632A94ED0E3BB0EE431A03
:1012B000F0EE631A94ED0C3BB0EE430AF0EE630AD5
:1012C000FFF7C1FC1BA001F0D3FF0AE01DA001F055
:1012D000CFFF02B0BDEC0A8B10BD1AA001F0C8FF11
:1012E000F7E794ED0E0B8DED000B94ED0C1BB0EEBB
:1012F000410AF0EE610A53EC102B14A001F0B8FF84
:1013000094ED060B8DED000B94ED041BB0EE410A3D
:10131000F0EE610A53EC102B11A001F0A9FF00BF01
:10132000D7E70000CBABC7FACFDFCAE4B3F6A3BA66
:1013300000000000BDA5BDFCCFDFCAE4B3F6A3BA30
:10134000000000006572726F720D0A0061313D206D
:10135000256C660961323D20256C660D0A0000008F
:10136000202020206C203D20256C660961203D2036
:10137000256C660D0A00000010B504466FF00400ED
:1013800000F092F9E11704EB5171C1F3C701394A3A
:1013900011701046007800EB4001C1EBC0104FF611
:1013A000FF7101EAC0003449088010BD0146314A8E
:1013B00012784A434FF0E0235A6100229A611A469C
:1013C000126942F001021A6100BF4FF0E022106979
:1013D00000F001021AB100F48032002AF5D04FF07B
:1013E000E022126922F001024FF0E0231A6100228C
:1013F0009A6170470146204A12884A434FF0E02321
:101400005A6100229A611A46126942F001021A6179
:1014100000BF4FF0E022106900F001021AB100F4A1
:101420008032002AF5D04FF0E022126922F001024A
:101430004FF0E0231A6100229A61704770B50446AC
:101440004FF4077094FBF0F0C6B24FF4077094FBB2
:10145000F0F100FB114085B205E04FF40770FFF793
:10146000C9FF701EC6B2002EF7D115B12846FFF78E
:10147000C1FF70BD380000203A00002000BF704757
:1014800000BF4C4A128802F04002002AF9D0C2B2D2
:10149000484B9A80704710B588B004460121084631
:1014A00000F0CCFC0121102000F022FD07220921D0
:1014B000414800F028FA07220A213F4800F023FAA9
:1014C0004FF4C060069002208DF81C008DF81D00BE
:1014D00000208DF81E0001208DF81F0006A9364857
:1014E00000F086F902940020ADF80C00ADF80E0073
:1014F000ADF81000ADF814000C20ADF8120002A9F0
:101500002C4800F0A0FE01212A4800F024FF01220F
:1015100040F22551274800F0D4FF25208DF8040023
:1015200003208DF805008DF8060001208DF80700D6
:1015300001A800F06CF808B010BD10B540F22551BC
:101540001C4800F0F9FF10B31A4800F033FFC4B292
:101550001A48008800F40040C8B91848008800F410
:10156000804060B10A2C03D000201449088020E09C
:101570001248008840F400401049088019E00D2C02
:1015800006D10E48008840F480400C49088010E0E5
:101590000A480088C0F30D0009490C540748008828
:1015A000401C0649088008460088C72801DD002045
:1015B000088010BD001001400000024040000020E3
:1015C000D00000200948804709480047FEE7FEE7B1
:1015D000FEE7FEE7FEE7FEE7FEE7FEE7FEE7FEE7E3
:1015E00004480549054A064B704700006903000896
:1015F00089010008F8010020F8070020F803002006
:10160000F803002032490143324A1160704770B537
:10161000002100230F22C4781CB32E4C246804F44C
:10162000E064C4F5E064C4F30721C1F10404E3B24B
:101630000A4144789C40E1B28478144021430C076D
:10164000210E254C05786155047804F01F0501240E
:10165000AC4005786D11AD0005F1E025C5F80041FD
:1016600009E0047804F01F050124AC401B4D067806
:10167000761145F8264070BD194A0A400243154BC1
:101680001B1F1A60704739B1124A121D12680243BB
:10169000104B1B1D1A6006E00E4A121D1268824391
:1016A0000C4B1B1D1A607047042808D14FF0E02135
:1016B000096941F004014FF0E022116107E04FF0A9
:1016C000E021096921F004014FF0E0221161704727
:1016D0000000FA050CED00E000E400E080E100E02D
:1016E00080FFFF1F10B504469848844208D10121AD
:1016F000084600F00EFC0021012000F00AFC76E014
:101700009348844208D10121022000F002FC00210C
:10171000022000F0FEFB6AE08E48844208D10121DD
:10172000042000F0F6FB0021042000F0F2FB5EE054
:101730008948844208D10121082000F0EAFB0021F9
:10174000082000F0E6FB52E08448844208D10121E1
:10175000102000F0DEFB0021102000F0DAFB46E054
:101760007F48844208D10121202000F0D2FB0021D3
:10177000202000F0CEFB3AE07A48844208D10121D3
:10178000402000F0C6FB0021402000F0C2FB2EE00C
:101790007548844208D10121802000F0BAFB002165
:1017A000802000F0B6FB22E07048844208D101217D
:1017B000801500F0AEFB0021A01500F0AAFB16E09A
:1017C0006B48844208D10121401500F0A2FB0021A2
:1017D000601500F09EFB0AE06648844207D10121B3
:1017E000001500F096FB0021201500F092FB10BDC3
:1017F000F0B50A4600210023002400BF3DE001258A
:1018000005FA01F3156805EA03049C4234D1056822
:101810004F000326BE40B543056015794E00B54024
:101820000668354305601579012D02D01579022D22
:1018300016D185684F000326BE40B54385605579B3
:101840004E00B540866835438560456801268E4068
:10185000B5434560456896798E40B6B235434560DC
:10186000C5684F000326BE40B543C560D5794E001C
:10187000B540C6683543C560491C1029BFD3F0BDCB
:101880004FF6FF7101600021017141718171C171D9
:10189000704708B54FF480320092009A0A430092D4
:1018A000009AC261C161009AC261C2690092C269B4
:1018B000009208BD0246002013690B400BB10120C5
:1018C00000E0002070470146086980B27047024678
:1018D000002053690B400BB1012000E0002070474D
:1018E0000146486980B27047018370474183704761
:1018F0000AB1018300E0418370474161704742694A
:101900004A4042617047F0B5002300244D07ED0EB8
:1019100002FA05F3CE1000F1200555F826504E07C7
:10192000F70E0F26BE40B543CF1000F1200646F853
:101930002750CE1000F1200555F8265045EA030443
:10194000CE1000F1200545F82640F0BD0000024011
:101950000004024000080240000C02400010024057
:101960000014024000180240001C02400020024007
:101970000024024000280240002041490860091D5F
:101980000860091D0860091D08603E483C49143183
:101990000860704700213A498279002A3AD00A4605
:1019A000126803689A430B461A600A1D126803689E
:1019B0009A430B1D1A60027911440A6803681A439E
:1019C0000A602F4A0832126803689A432C4B083386
:1019D0001A601A1D126803689A43294B0C331A6067
:1019E0004279102A0ED11A1F126803681A43244B39
:1019F00008331A601A1D126803681A43204B0C330F
:101A00001A600DE01E49427911440A6803681A43BE
:101A10000A6005E0027911440A6803689A430A6083
:101A200070470021016001710C2141710021817119
:101A300070471349103109680143114A103211608F
:101A40007047014600200E4A143212680A400AB15B
:101A5000012000E0002070470949143108607047F8
:101A600001460020064A143212680A400AB10120D9
:101A700000E0002070470249143108607047000000
:101A8000003C0140FFFF7F00F948006840F0010082
:101A9000F74908600020F64908310860F4480068FA
:101AA000F4490840F2490860F348091D0860F3480A
:101AB000EF4984310860F0481038091D0860EC488F
:101AC000006820F48020EA4908600020E8490C31D1
:101AD0000860E7498C31086070470021E44A921C95
:101AE000117011460870704710B50146002200239E
:101AF00000204A11012A02D1DD4C236808E0022AA5
:101B000003D1DB4C7034236802E0D94C7434236871
:101B100001F01F02012494401C400CB1012000E0A0
:101B2000002010BD38B5002000900024002500BF23
:101B30003120FFF7D9FF05460098401C009000981F
:101B4000B0F5A04F01D0002DF2D03120FFF7CCFF2F
:101B500008B1012400E00024204638BD01460020E1
:101B6000C34A106820F0F80040EAC10010607047D6
:101B7000C349086070470021BD4A7032117011706E
:101B8000012802D004280AD104E00121B84A7032A9
:101B9000117005E00521B64A7032117000E000BFF7
:101BA00000BF7047B7490860704770B5049C41EAB0
:101BB00082150126C6EB530645EA0645054345EA6C
:101BC0000465AB4E361D356070BDAD490866704783
:101BD000820142EA0172A64B84331A607047A84919
:101BE0008866704710B5830143EA016343EA0273D4
:101BF0009F4C8834236010BDA14908677047A049F5
:101C0000C864704702460020994B0833186820F0DA
:101C1000EC6042EA01031843954B083318607047A3
:101C200002460020924B0833186820F0784042EAC0
:101C3000010318438E4B083318607047014600209B
:101C40008B4A0832106820F0030008431060704788
:101C500087480830006800F00C00704701460020FB
:101C6000834A0832106820F0F00008431060704783
:101C7000014600207E4A0832106820F4E0500843F4
:101C80001060704701460020794A0832106820F43D
:101C9000604040EAC10010607047F0B500210022AA
:101CA0000024022500260223714F08373F6807F001
:101CB0000C0121B1042905D0082937D105E0724F64
:101CC000076036E0714F076033E0694F3F1D3F68A2
:101CD000C7F38056664F3F1D3F6807F03F036EB164
:101CE0006A4FB7FBF3F7DFF888C10CF1040CDCF89E
:101CF00000C0CCF3881C07FB0CF40CE0624FB7FB70
:101D0000F3F7DFF86CC10CF1040CDCF800C0CCF385
:101D1000881C07FB0CF4564F3F1D3F68C7F3014773
:101D20007F1C7D00B4FBF5F7076002E0564F0760AB
:101D300000BF00BF4E4F08373F6807F0F0010909A8
:101D4000534F7A5C0768D7404760494F08373F6870
:101D500007F4E051890A4E4F7A5C4768D7408760A4
:101D6000434F08373F6807F46041490B484F7A5C9E
:101D70004768D740C760F0BD002100F44072B2F55B
:101D8000407F0AD13A4A0832116821F4F811414AD9
:101D900002401143364A08321160354A70321268E7
:101DA000C0F30B031A43324B70331A607047354946
:101DB00044390860704733494039086070473649F4
:101DC0000860704701460020294A8C32106820F0D4
:101DD0001F004A1E1043264A8C321060704701468D
:101DE0000020234A8C32106820F4F8504A1E40EA42
:101DF00002201F4A8C3210607047014600201C4AA6
:101E00008C32106820F4401008431060704701467F
:101E10000020174A8C32106820F4400008431060FC
:101E2000704701460020124A8C32106820F440307E
:101E300008431060704719490860704739B10C4A6F
:101E40003032126802430A4B30331A6006E0084A07
:101E5000303212688243064B30331A607047F9B152
:101E6000034A343212680243014B34331A601CE0D7
:101E700000380240FFFFF6EA103000240030002056
:101E800000004742800E47420024F40000127A000E
:101E900042000020FFFCFF0F5C014742E011474277
:101EA0008F4A126882438E4B1A60704739B18C4A50
:101EB000121D126802438A4B1B1D1A6006E0884AF5
:101EC000121D12688243864B1B1D1A60704739B180
:101ED000834A0C3212680243814B0C331A6006E0CD
:101EE0007F4A0C32126882437D4B0C331A60704774
:101EF00039B17B4A103212680243794B10331A60B1
:101F000006E0774A103212688243754B10331A602C
:101F1000704739B1724A243A12680243704B243B2D
:101F20001A6006E06E4A243A126882436C4B243BE6
:101F30001A60704739B16A4A203A12680243684B06
:101F4000203B1A6006E0664A203A12688243644BDE
:101F5000203B1A60704739B1614A1C3A126802434B
:101F60005F4B1C3B1A6006E05D4A1C3A12688243D4
:101F70005B4B1C3B1A60704739B1594A143A1268DE
:101F80000243574B143B1A6006E0554A143A126854
:101F90008243534B143B1A60704739B1504A103A90
:101FA000126802434E4B103B1A6006E04C4A103A4E
:101FB000126882434A4B103B1A60704739B1484A55
:101FC0001C3212680243464B1C331A6006E0444A36
:101FD0001C3212688243424B1C331A60704739B17D
:101FE0003F4A2032126802433D4B20331A6006E01C
:101FF0003B4A203212688243394B20331A607047C3
:1020000039B1374A243212680243354B24331A60FF
:1020100006E0334A243212688243314B24331A607B
:10202000704739B12E4A2C32126802432C4B2C33A4
:102030001A6006E02A4A2C3212688243284B2C335D
:102040001A60704739B1264A303212680243244B75
:1020500030331A6006E0224A303212688243204B45
:1020600030331A607047012808D11D493C31096896
:1020700041F008011A4A3C32116007E018493C312E
:10208000096821F00801164A3C321160704739B1E5
:10209000134A273A12780243114B273B1A7006E085
:1020A0000F4A273A127882430D4B273B1A7070472C
:1020B0000B484030006840F08070094940310860AA
:1020C000704701460020064A283A12680A400AB1C1
:1020D000012000E000207047014926390870704750
:1020E0003438024010B501218803FFF756FF002164
:1020F0004FF48040FFF751FF10BD1C490860704746
:102100001B490862704730B500228B071C0F0F2354
:1021100003FA04F2154B08338C1053F82430934320
:10212000124C08348D1044F8253023468C1053F897
:1021300024308C07240F00FA04F423430B4C08349A
:102140008D1044F8253030BD0949DC3108607047F6
:10215000084908607047002004492031096801F4EB
:10216000807109B1012000E0002070470038014073
:10217000000027420004274210B50446FA48844272
:1021800008D101211020FFF708FF00211020FFF7E0
:1021900004FF57E0F548844209D101214804FFF7C4
:1021A000EBFE00214FF40030FFF7E6FE4AE0F04876
:1021B000844209D101218804FFF7DEFE00214FF49B
:1021C0008020FFF7D9FE3DE0EA48844209D1012191
:1021D000C804FFF7D1FE00214FF40020FFF7CCFE2A
:1021E00030E0E548844209D101210805FFF7C4FE2B
:1021F00000214FF48010FFF7BFFE23E0DF48844248
:1022000008D101212020FFF7C8FE00212020FFF780
:10221000C4FE17E0DA48844209D101218807FFF79C
:10222000ABFE00214FF08040FFF7A6FE0AE0D54844
:10223000844207D101214005FFF79EFE0021600581
:10224000FFF79AFE10BD2DE9FF4705460E46002414
:10225000A14600BFA046B08900B100BF2C8A24F47B
:102260004054F08804432C82AC8941F20C608443D2
:10227000B08831890843718908430443AC81AC8A32
:1022800024F44074B0890443AC826846FFF705FD2E
:10229000B548854202D0B948854202D1DDF80C909C
:1022A00001E0DDF80890A88900F4004040B109EB96
:1022B000C90000EB091031684900B0FBF1F707E0F5
:1022C00009EBC90000EB091031688900B0FBF1F798
:1022D0006420B7FBF0F004012009642101FB1078B1
:1022E000A88900F4004040B1322000EBC800B0FBE8
:1022F000F1F000F00700044308E0322000EB081082
:102300006421B0FBF1F000F00F0004432C81BDE824
:10231000FF874FF41651016000218180C180018147
:102320000C21418100218181704710B502460020B7
:10233000108A20F470600B884C8823438C882343D8
:10234000CC8823431843108210BD002101804180B6
:102350008180C180704721B1828942F4005282811C
:1023600004E082894DF6FF731A4082817047028B28
:1023700002F47F420283028B0A430283704721B139
:10238000828942F40042828103E08289C2F30E0214
:102390008281704721B1828A42F40062828204E025
:1023A000828A4FF2FF731A4082827047C1F308029B
:1023B0008280704701468888C0F308007047028A0F
:1023C0004FF6F0731A400282028A0A430282704773
:1023D00021B1828942F00202828104E082894FF6B3
:1023E000FD731A408281704782894FF2FF731A4051
:1023F000828182890A4382817047028A4FF6DF73A5
:102400001A400282028A0A430282704721B1028A7C
:1024100042F48042028204E0028A4BF6FF731A40C3
:1024200002827047818941F001018181704721B1A9
:10243000828A42F00802828204E0828A4FF6F773B1
:102440001A4082827047028BD2B20283028B42EA28
:1024500001220283704721B1828A42F020028282E7
:1024600004E0828A4FF6DF731A408282704721B1FE
:10247000828A42F01002828204E0828A4FF6EF7371
:102480001A4082827047828A4FF6FB731A4082821A
:10249000828A0A438282704721B1828A42F0020214
:1024A000828204E0828A4FF6FD731A40828270476E
:1024B0001AB1838A0B43838202E0838A8B4383822F
:1024C0007047F0B50346002400260025002040F6A2
:1024D0006A17B94200D100BF1846C1F3421401F097
:1024E0001F06012707FA06F5012C01D10C3004E084
:1024F000022C01D1103000E014301AB107682F43CC
:10250000076002E00768AF430760F0BD02460020A5
:10251000B1F5007F00D100BF13880B400BB1012043
:1025200000E00020704701F40072B2F5007F00D196
:1025300000BFCA430280704770B5024600240023E2
:102540000025002040F66A16B14200D100BFC1F359
:10255000421501F01F03012606FA03F3012D13D1E2
:102560009689334017E0000000100140004400400D
:1025700000480040004C0040005000400014014062
:1025800000780040007C0040022D02D1168A3340C2
:1025900001E0968A33400C12012606FA04F41688EC
:1025A000344013B10CB1012000E0002070BD10B523
:1025B0000022002340F66A14A14200D100BF0A1293
:1025C00001249440A3B2DC43048010BD10B504463E
:1025D000FE48844208D101210846FFF7DEFC0021B5
:1025E0000120FFF7DAFC9DE0B4F1804F08D1012112
:1025F0000846FFF7C1FC00210120FFF7BDFC91E078
:10260000F348844208D101210220FFF7B5FC0021E4
:102610000220FFF7B1FC85E0EE48844208D1012199
:102620000420FFF7A9FC00210420FFF7A5FC79E0B6
:10263000E948844208D101210820FFF79DFC0021D0
:102640000820FFF799FC6DE0E448844208D101219D
:102650001020FFF791FC00211020FFF78DFC61E0B6
:10266000DF48844208D101212020FFF785FC0021AA
:102670002020FFF781FC55E0DA48844208D101218F
:102680000220FFF78AFC00210220FFF786FC49E0C8
:10269000D548844209D101210804FFF77EFC0021BE
:1026A0004FF48030FFF779FC3CE0D048844209D1F8
:1026B00001214804FFF771FC00214FF40030FFF7BF
:1026C0006CFC2FE0CA48844209D101218804FFF73D
:1026D00064FC00214FF48020FFF75FFC22E0C54836
:1026E000844208D101214020FFF746FC0021402010
:1026F000FFF742FC16E0C048844208D10121802047
:10270000FFF73AFC00218020FFF736FC0AE0BB48C7
:10271000844207D101218015FFF72EFC0021A0156E
:10272000FFF72AFC10BD00220288A84B98420ED069
:10273000AC4B98420BD0B0F1804F08D0A44B9842DC
:1027400005D0A44B984202D0A34B984204D14FF637
:102750008F731A404B881A43A04B984207D0A04B66
:10276000984204D04FF6FF431A400B891A43028067
:102770004B68C3620B880385944B984202D0994BF7
:10278000984201D18B7A03860123838270474FF0F0
:10279000FF314160002101800181418081727047D9
:1027A0000185828270470A46002101884FF68F73A7
:1027B000194011430180704741627047C162704700
:1027C0000146486A70470146088D704721B102886A
:1027D00042F00202028004E002884FF6FD731A40C4
:1027E0000280704721B1028842F00402028004E0B6
:1027F00002884FF6FB731A400280704721B10288AD
:1028000042F08002028004E002884FF67F731A4093
:102810000280704702884FF6F7731A4002800288E0
:102820000A430280704702884FF6FF431A40028035
:1028300002880A430280704721B1028842F00102F7
:10284000028004E002884FF6FE731A40028070474F
:1028500070B5002400220023058C4FF6FE7635402B
:102860000584028C8388048B4FF68F752C40B51E2F
:102870002C400D882C43751E2A408D892A434D8893
:102880002A43524DA84202D0564DA84213D14FF6CA
:10289000F7752A40CD892A434FF6FB752A408D886B
:1028A0002A434FF6FF652B404FF6FF552B400D8A0C
:1028B0002B434D8A2B43838004838D6845630284B8
:1028C00070BD70B5002400220023058C4FF6EF7612
:1028D00035400584028C8388048B48F6FF752C40B4
:1028E0004FF6FF452C400D884FF6FF7606EA05258A
:1028F0002C434FF6DF752A408D8906EA05152A43D9
:102900004D8806EA05152A43304DA84202D0354DC0
:10291000A8421DD14FF67F752A40CD894FF6FF762C
:1029200006EA05152A434FF6BF752A408D8806EA48
:1029300005152A434FF6FF352B404FF2FF752B400C
:102940000D8A06EA85052B434D8A06EA85052B4349
:10295000838004838D688563028470BD70B5002414
:1029600000220023058C4FF6FF6635400584028C5B
:102970008388848B4FF68F752C404FF6FC752C4066
:102980000D882C434FF6FF552A408D894FF6FF7670
:1029900006EA05252A434D8806EA05252A430B4DFC
:1029A000A84202D00F4DA84238D14FF2FF752A40FD
:1029B000CD894FF6FF7606EA05252A434FF6FF3507
:1029C0002A408D8806EA05252A4319E000000140C7
:1029D0000004004000080040000C004000100040CF
:1029E0000014004000040140004001400044014048
:1029F0000048014000180040001C0040002000403A
:102A00004EF6FF752B404DF6FF752B400D8A06EAFA
:102A100005152B434D8A06EA05152B4383808483D5
:102A20008D68C563028470BD70B500220023002448
:102A3000058C4EF6FF7635400584038C8488828BA6
:102A400048F6FF752A404FF6FF452A400D884FF69D
:102A5000FF7606EA05252A434DF6FF752B408D8942
:102A600006EA05352B434D8806EA05352B43FE4D16
:102A7000A84202D0FD4DA84208D14BF6FF752C406C
:102A80000D8A4FF6FF7606EA85152C4384808283F3
:102A90008D680564038470BD0021018041808180C0
:102AA00081608181C18101824182704770B5034696
:102AB000002000241846183001258D40ACB21D8C32
:102AC000A5431D8409B108290AD100EB61000568FE
:102AD0004FF68F76354005600568154305600FE0B9
:102AE0000D1FC5F34E052844056848F6FF763540AE
:102AF000056005684FF6FF7606EA02263543056055
:102B000070BD4163704781637047C1637047016462
:102B100070470A460021018B4FF68F73194011430D
:102B2000018370470A460021018B48F6FF73194064
:102B30004FF6FF7303EA02231943018370470A46E5
:102B40000021818B4FF68F731940114381837047A9
:102B50000A460021818B48F6FF7319404FF6FF7338
:102B600003EA02231943818370470A460021018B3F
:102B70004FF6F77319401143018370470A4600214D
:102B8000018B4FF2FF7319404FF6FF7303EA0223E4
:102B90001943018370470A460021818B4FF6F77372
:102BA00019401143818370470A460021818B4FF2FF
:102BB000FF7319404FF6FF7303EA02231943818321
:102BC00070470A460021018B4FF6FB7319401143F1
:102BD000018370470A460021018B4FF6FF331940ED
:102BE0004FF6FF7303EA02231943018370470A4635
:102BF0000021818B4FF6FB7319401143818370478D
:102C00000A460021818B4FF6FF3319404FF6FF73C0
:102C100003EA02231943818370470A460021018B8E
:102C20004FF67F7319401143018370470A46002114
:102C3000018BC1F30E014FF6FF7303EA0223194320
:102C4000018370470A460021818B4FF67F7319403C
:102C50001143818370470A460021818BC1F30E0125
:102C60004FF6FF7303EA02231943818370470A4634
:102C70000021018C4FF6FD73194011430184704708
:102C80000A460021018C4FF6F77319401143018465
:102C900070470A460021018C4FF6DF7319404FF64A
:102CA000FF7303EA02131943018470470A460021A7
:102CB000018C4FF67F7319404FF6FF7303EA02133E
:102CC0001943018470470A460021018C4FF6FF53D7
:102CD00019404FF6FF7303EA02231943018470473A
:102CE0000A460021018C4FF2FF7319404FF6FF7323
:102CF00003EA02231943018470470A460021018C2C
:102D00004DF6FF7319404FF6FF7303EA0233194380
:102D10000184704730B5002301248C40A3B2048C99
:102D20009C430484048C02FA01F5ADB22C43048464
:102D300030BD30B5002304248C40A3B2048C9C43E6
:102D40000484048C02FA01F5ADB22C43048430BD36
:102D5000828B4FF2FF331A408283828B4FF6FF73D0
:102D600003EA01231A4382837047F0B50C461546E7
:102D7000002100220026078C4EF6FF7C07EA0C0794
:102D80000784818B028C4FF6FF7707EA043640F602
:102D9000FF4739404FF6FF7707EA052739434FF6DB
:102DA000FF7707EA0337394345F6FF773A4046F4A1
:102DB00080573A4381830284F0BD828B4FF6F373D0
:102DC0001A408283828B0A4382837047F0B50C4697
:102DD0001546002100220026078C4FF6FF6C07EAFB
:102DE0000C070784818B028C4FF6FF7707EA0426D5
:102DF0004FF60C7739404FF6FF7707EA03172F435A
:102E000039434FF2FF573A4046F480773A43818383
:102E10000284F0BD028B4FF2FF331A400283028B13
:102E20004FF6FF7303EA01231A4302837047F0B59C
:102E30000C461546002100220026078C4FF6EF7C39
:102E400007EA0C070784018B028C4FF6FF7707EA2D
:102E5000041640F6FF4739404FF6FF7707EA03377D
:102E600039434FF6FF7703E00000014000040140C2
:102E700007EA052739434FF65F773A4046F01007D7
:102E80003A4301830284F0BD028B4FF6F3731A407C
:102E90000283028B0A4302837047F0B50C46154645
:102EA00000210022068C4FF6FE773E400684018BFF
:102EB000028C4FF60C7631407E1C06EA03162E4338
:102EC00031434FF6F576324044F001063243018338
:102ED0000284F0BD70B505460C46208850B92389A0
:102EE000A28861882846FFF7D8FFE1882846FFF7C7
:102EF000CBFF25E0208804280AD12389A288618895
:102F00002846FFF794FFE1882846FFF783FF17E084
:102F1000208808280AD12389A28861882846FFF7DB
:102F200055FFE1882846FFF748FF09E02389A2887A
:102F300061882846FFF719FFE1882846FFF708FF58
:102F400070BD002101804180012181800021C1806C
:102F5000018170472DE9F04105460C460026012706
:102F6000608808B9022600E00026A088012801D167
:102F7000022700E001272088A0B92389A288618860
:102F80002846FFF78AFFE1882846FFF77DFF23895F
:102F90003A4631462846FFF74AFFE1882846FFF7C0
:102FA00039FF13E02389A28861882846FFF73FFF95
:102FB000E1882846FFF72EFF23893A463146284606
:102FC000FFF76BFFE1882846FFF75EFFBDE8F08161
:102FD0000146486B70470146886B70470146C86BD5
:102FE00070470146086C70470A884B881A438B88E3
:102FF0001A43CB881A430B891A434B891A438B898E
:103000001A43A0F84420704700210180418081804C
:10301000C180018141818181704731B1B0F8442084
:1030200042F40042A0F8442005E0B0F84420C2F386
:103030000E02A0F84420704721B1828842F00402B9
:10304000828004E082884FF6FB731A4082807047CA
:1030500021B1828842F00102828004E082884FF62A
:10306000FE731A40828070471AB183890B438381B3
:1030700002E083898B4383817047818270470246D7
:103080000020138A0B400BB1012000E000207047A4
:10309000CA430282704730B5024600200023002454
:1030A000158A05EA0103958905EA010413B10CB1FB
:1030B000012000E0002030BDCA430282704741EA8F
:1030C0000203A0F8483070471AB183890B4383810B
:1030D00002E083898B438381704721B1828842F06B
:1030E0000802828004E082884FF6F7731A408280DB
:1030F000704701894FF6F8721140018170470A4606
:10310000002101894FF68F731940114301817047E7
:1031100030B504460D4629462046FFF7F0FF2089CA
:1031200040F00700208130BD2DE9F04104460D46F6
:1031300016461F46602D06D13B46012231462046E9
:10314000FFF775FE05E03B46012231462046FFF7BA
:10315000A4FE29462046FFF7D2FF208940F0070051
:103160002081BDE8F08130B50C4600210189C9B24B
:103170004FF6FF7505EA03251543254329430181D1
:1031800030BD2DE9F04105460E461746984600240D
:1031900043463A4631462846FFF7E5FF2C894FF66D
:1031A000F870044044F007044FF68F70044044F078
:1031B00070042C81BDE8F081F0B504460D4616463A
:1031C0001F463B46324629462046FFF7CCFF208962
:1031D00040F480402081F0BD82884FF68F731A4002
:1031E000828082880A438280704702894FF6F87392
:1031F0001A40028102890A430281704702894FF610
:103200007F731A40028102890A4302817047F0B538
:103210000C4615461E460021002200230189028B20
:10322000038C4FF6F877394021434FF6FC473A407C
:1032300040F201173A434FF6DD773B404FF6FF77F8
:1032400007EA06172F433B43018102830384F0BD45
:1032500021B1828842F08002828004E082884FF6A9
:103260007F731A4082807047A0F8501070477047F3
:103270000FB4044910B503AA029800F047FB10BC34
:103280005DF814FB3C0000200FB41CB5074B06AAE8
:103290007B4469460090059800F01FFB00206946BA
:1032A00000F02EFB1CBC5DF814FB00006D06000056
:1032B0002DE9F0410646002410687529314616A50F
:1032C00010D0AFF30080002802DA404213A507E0D7
:1032D00031688A0701D512A502E0490704D511A576
:1032E000012401E0AFF3008000210A2206F1240747
:1032F00009E0B0FBF2FCB0FBF2F302FB1C00303043
:1033000078541846491C0028F3D123462A463046F3
:10331000BDE8F04100F073B8000000002D0000008F
:103320002B000000200000002DE9F0410F4605466B
:10333000002028622846E968884770B3252805D010
:10334000D5E901219047286A401CF2E7E968284640
:10335000002688476C2804460AD0682C08D04C2CDC
:1033600035D06A2C31D0742C31D07A2C2FD016E085
:10337000E968064628468847B042044608D16C2EC4
:1033800023D04FF480662846E9688847044606E063
:103390006C2E03D04FF4807601E01EE04026E4B1AD
:1033A000A4F14100192802D8203446F400663A46B8
:1033B000214628462E60FCF721FF60B1012808D085
:1033C000FF1D27F007070837B4E78026DBE7002654
:1033D000D9E73F1DAEE72046B2E7286ABDE8F08195
:1033E000704770477047704710B500F0A5FA006845
:1033F00010BD10B5044600F09FFA046010BD2DE921
:10340000F0470D4699469246044600F124080168AB
:10341000880604D5E06921F01001216000E0012058
:10342000A84201DD471B00E00027A1697A1902EBE1
:103430000900081AA0612078C00602D42046AFF324
:103440000080002608E0D4E901211AF80600904720
:10345000206A401C761C20624E45F4DB2078C006B2
:103460000AD52046AFF3008006E0D4E901213020E0
:103470009047206A401C2062381EA7F10107F4DC47
:1034800007E0D4E9012118F805009047206A401CA4
:103490002062281EA5F10105F3DC2046AFF3008071
:1034A0002078000602D50220BDE8F0870120FBE766
:1034B00070472DE9FF4F0C461E464FF0FF378BB08B
:1034C000D2E90001DDF860800A908A46C1F30A550E
:1034D00005B93D46002108464FF00000BAF1000F43
:1034E00000F4400005DA00EB80004FF4400101EAEF
:1034F00050004FEA9059B9F1010F00DDB9460A9822
:1035000050EA4A000ED044F61050A5F2FF3545436C
:103510002F14B8F1000F1ED07542291E1EDDC9F10F
:1035200000021CE0B8F1010F4FF0000001D0302183
:1035300003E0F24305E02154401CB042FBDB30467F
:103540000022002121540B99C1F80880C1E9002014
:103550000FB0BDE8F08FBD1B6D1CDEE74A4600DAF8
:10356000694206A800F072FA06AB93E8070003ABC5
:1035700083E8070050460A9900F050FB8DE80700E9
:10358000A0F500501F3800900398002D0ADD42F28C
:103590001F014A460844002303A90390684600F02F
:1035A000B9FD09E0A0F500504A461F38002303A9E1
:1035B0000390684600F0C3FD8DE807000004000C8E
:1035C00003D04FF0FF30410800E01046B8F1000F83
:1035D00003D00022009215461EE0751E05D400F0AF
:1035E000AFF9303262556D1EF9D5B346012208435A
:1035F00002D000227F1C04E02078302801D1002274
:103600007F1E002A099784D01DE0112D07DA00F0F3
:1036100097F9303262556D1C50EA0102F5D108432A
:1036200002D00098C8B10EE00021681E05E0235CBE
:10363000625C63542254401E491C8142F7DBAB4656
:10364000A81B401E0990002004F80B000B98099A53
:10365000C0F80880C0E9002B7AE711264FF0000877
:1036600057E72DE9F04F88460446D21D22F00701A6
:1036700091B0D1E90001CDE90A0100F097FE0246C0
:103680000B98C00F01D02D2007E02068810701D5DD
:103690002B2002E0202101EAC000032A099001D07A
:1036A000072A05DB03464146204600F08FF90BE16F
:1036B0002078800601D5E06900E00620B8F1650FAA
:1036C000814606D0B8F1660F18D0B8F1670F70D1F7
:1036D00031E00020B9F1110F009001DB112301E06E
:1036E00009F101030AAA01A90CA8FFF7E2FEDDE92E
:1036F0000C70002609F10105834647E001204B4686
:1037000000904FF000470AAA01A90CA8FFF7D1FECC
:10371000DDE90DB00C995D46002610B909F10100F4
:103720000D18B9EB050003D4C0F1FF3609F101050E
:10373000A5EB09002BE0B9F1010F01DA4FF0010907
:103740000020B9F1110F0090484601DD112300E07F
:1037500003460AAA01A90CA8FFF7ABFEDDE90C702D
:103760004D4600268346207800070AD4AB4500DA90
:103770005D4601A8012D04DD411911F8011C302915
:1037800007D04F4502DA17F1040F04DA0120824610
:103790000FE06D1EEEE7002F02DCED1B3E4403E060
:1037A000781CA84200DD7D1CB81B00F1010A4FF017
:1037B00000472078000703D4AA4501DB4FF0FF3A09
:1037C0000021B7F1004F0DF143088DF8431024D0CC
:1037D00002202B23002F01DA7F422D230A21021E13
:1037E000A0F1010000DC5FB197FBF1FC97FBF1F267
:1037F00001FB1C7C17460CF1300C08F801CDEEE7FC
:10380000A8F1010003702188090501D5452100E0D8
:103810006521A0F1010800F8011C09980FA9A1EB8E
:103820000807FF1D00B10120411901EBEA70A169F1
:103830003844081A401EA0612078C00602D42046F1
:10384000AFF30080099828B1D4E901219047206A9C
:10385000401C20622078C00622D52046AFF30080AD
:103860001EE0002E04DBB34502DD01A8805D00E010
:103870003020D4E901219047206A401C2062761C48
:10388000AAF101005FEA000A0AD100F051F8C0680D
:103890000168405CD4E901219047206A401C206205
:1038A000281EA5F10105DCDC07E0D4E9012118F8A8
:1038B000010B9047206A401C2062381EA7F10107C7
:1038C000F3DC2046AFF30080032011B041E6000096
:1038D00001694A1C02610878704700B58FB0CDE9D4
:1038E00001310021059105497944CDE903101146C4
:1038F0006846FFF719FD0FB000BD0000E5FFFFFFB0
:103900000A6802F8010B0A6070470000074B70B5A7
:103910000D467B44FFF7E1FF0446284600F008F916
:1039200010B14FF0FF3070BD204670BD6BDBFFFF64
:1039300000487047B80100200048704798010020F7
:1039400030B5B0F10A024FEA900E71F100034EEA71
:10395000817EB0EB0E0061EB91014FEA101E4EEA42
:10396000017E10EB0E0041EB11114FEA102E4EEAD2
:10397000016E10EB0E0041EB11214FEA104E4EEAA2
:10398000014E10EB0E0041EB1141401841F10001D6
:103990004FEAD00040EA41704FEAD10110EB8005B8
:1039A0004FEA810444EA907444EB01046D1944EB3E
:1039B0000404521BA3414FF0000348BF0A3200D554
:1039C00030BD401C41F1000130BD00002DE9F04147
:1039D0001F46044603260168072A01F4006004DB41
:1039E00008B116A505E016A503E008B115A500E08D
:1039F00015A521F010002060A069C01EA0610FB1C4
:103A0000401EA0612046AFF300804FB1D4E90121F0
:103A100038469047206A401C2062C01C206206E0A5
:103A2000206AFAE7D4E9012115F8010B9047761EC8
:103A3000F8D22046AFF30080BDE8F0814E414E0041
:103A40006E616E00494E4600696E66002DE9F047D2
:103A5000814616468AB0354878440DC88DE80D0079
:103A600032487844801C03AC0DC884E80D0041F650
:103A70009B300844372190FBF1F290FBF1F5A5F162
:103A8000800501FB12041B3C02D56442012000E0CA
:103A90000020DFF898A080460027FA44AAF1BE0A69
:103AA0000EE0E0070AD03246684607EB47010123E3
:103AB0000AEB810100F043FB8DE8070064107F1CD6
:103AC000002CEED1194F7F44AE3F19E0E80715D026
:103AD00007EB04100DF1180A90E80E008AE80E00BA
:103AE000C068F04201D1981908903246012306A916
:103AF00003A800F024FB03AB83E807006D10641CEF
:103B0000002DE3D14FF0010332466946B8F1000FB2
:103B100003A802D000F0FEFA01E000F010FBC9E9B2
:103B20000001C9F808200AB0BDE8F087C8270000E6
:103B3000007B00F08000704700487047980100202B
:103B40007546FFF7F9FFAE4605006946534620F07B
:103B50000700854618B020B5FDF742FDBDE82040BE
:103B60004FF000064FF000074FF000084FF0000B39
:103B700021F00701AC46ACE8C009ACE8C009ACE8EC
:103B8000C009ACE8C0098D46704710B50446AFF3D4
:103B900000802046BDE81040FCF74FBB4FF0013CD1
:103BA00050F8042B51F8043B9A4221D1A2EB0C03AC
:103BB000934313EACC1317D150F8042B51F8043B6C
:103BC0009A4215D1A2EB0C03934313EACC130BD109
:103BD00050F8042B51F8043B9A4209D1A2EB0C0394
:103BE000934313EACC13DBD04FF00000704700BFC3
:103BF000D01A01BAB1FA81F101F0180122FA01F0EC
:103C0000CB40C1F12001DBB2C0B2C01A2CFA01F3E3
:103C1000D11A914311EAC311E6D170475FEA400C13
:103C200008BF91F0000F4FEA8C234FEAC12243EA0C
:103C300051514FEA1C5018BF00F5F0404FEA3000D8
:103C400018BF41F000415FEA6C5C00F02980BCF1D4
:103C5000FF3F08BF40F080407047130C06BF1204BE
:103C60004FF0100C4FF0000C130E04BF12020CF1B9
:103C7000080C130F04BF12010CF1040C930F04BFC6
:103C800092000CF1020CD30F04BF52000CF1010C96
:103C900011464FF00002A0F11F00A0EB0C0070478E
:103CA00011F0004F08BF704731F000413FF4D5AF2D
:103CB0000B0C06BF09044FF0100C4FF0000C0B0E5C
:103CC00004BF09020CF1080C0B0F04BF09010CF131
:103CD000040C8B0F04BF89000CF1020CCB0F04BF46
:103CE00049000CF1010CCCF12003A0EB0C0022FAEE
:103CF00003F302FA0CF241EA030100F101007047FC
:103D000020F07F4C80EA030023F07F47ACEB0703F1
:103D100003F57C5300F0004003F1FF032DE98049D7
:103D20004FEA154B09B44FEA144325EA0B4E24EA37
:103D300003480FF2042606EB132749083E785FEA92
:103D4000320203FB0667C7F5000707FB06F64FEADA
:103D500054374FEAD64606F1020607FB066CCCF153
:103D6000005C4FEA1C472CEA074C07FB06F40CFBEF
:103D700006F504EB15464FEA961634BF00204FF0C7
:103D800000404FEAD13706FB07FC4FEA1C4C0CFB06
:103D90000BF7D21B03FB0CF761EB07010CFB0EF7D3
:103DA000B0EB074072EB17420CFB08F734BFA2EBF5
:103DB0000742B2EB074261EB17414FEA0C444FEA6E
:103DC000910706FB07FC4FEA1C4C0CFB0BF7B0EB12
:103DD000C74072EB573203FB0CF734BFA2EBC7426C
:103DE000B2EBC74261EB57310CFB0EF7B0EBC700EB
:103DF00072EB57720CFB08F734BFA2EBC702B2EBB1
:103E0000C70261EB5771039F4FEA816141EA92114A
:103E100004EBCC044FEAD1374FEA826206FB07FC81
:103E200042EA90124FEA80604FEA1C4C0CFB0BF701
:103E3000D21B03FB0CF761EB07010CFB0EF7B0EB99
:103E4000074072EB17420CFB08F734BFA2EB0742A6
:103E5000B2EB074261EB17414FEA8C554FEA9107ED
:103E600004EB9C2406FB07FC4FEA1C4C0CFB0BF7F5
:103E7000B0EBC74072EB573203FB0CF734BFA2EB39
:103E8000C742B2EBC74261EB57310CFB0EF7B0EB08
:103E9000C70072EB57720CFB08F734BFA2EBC702E6
:103EA000B2EBC70261EB577115EB4C254FEA81610C
:103EB00041EA92114FEA82624FEAD13742EA901208
:103EC00006FB07FC44F100044FEA80604FEA1C4CFB
:103ED0000CFB0BF7D21B03FB0CF761EB07010CFB90
:103EE0000EF7B0EB074072EB17420CFB08F734BF3C
:103EF000A2EB0742B2EB074261EB174115EB1C1531
:103F00004FEA813141EA92414FEA823242EA9042DD
:103F10004FEA80304FEA0C7644F1000448EA03434C
:103F20004EEA0B484FF0000EB2EB080C71EB0307A2
:103F300024BF624639464EEB0E0E4FF0000B0018C0
:103F4000524149414BEB0B0BB2EB080C71EB0307F1
:103F50007BF1000B24BF624639464EEB0E0E4FF04C
:103F6000000B0018524149414BEB0B0BB2EB080C14
:103F700071EB03077BF1000B24BF624639464EEB21
:103F80000E0E51EA020718BF46F0010616EB0E7638
:103F900055F1000254F1000103D5BDE88901BDE8E7
:103FA0000088BDE88901BDE80048B619524141EBDF
:103FB0000101A3F10103704780807F7E7D7C7B7AC5
:103FC0007978777676757473727171706F6E6E6DC5
:103FD0006C6C6B6A6A69686867666665646463636B
:103FE00062616160605F5F5E5E5D5D5C5C5B5B5AF1
:103FF0005A5959585857575656555555545453535E
:1040000052525251515050504F4F4F4E4E4D4D4DB8
:104010004C4C4C4B4B4B4A4A4A4949494848484703
:104020004747474646464545454444444443434341
:104030004342424242414141002B9C4630D47700EA
:104040002BD01CB54FEA370703B44FF010004FF0E8
:104050001001BAF1000F06D0BCF1000FDCBF40F038
:10406000080040F008014FF000000FBCBDE8104010
:104070000BF1010BBBF1010F08BF5FEA170722BF6D
:1040800012F1010211F101014FF0004143F100036F
:1040900000F0004043EA00007047F9D35708D0E72A
:1040A00046EA064613F1400F4FEA16461FDD13F1AC
:1040B000200FDFBF16430A46002120335B42BED0EB
:1040C000C3F1200746EA064602FA07F74FEA16460A
:1040D00046EA0706C3F1200722FA03F201FA07F7BE
:1040E00021FA03F14FF0000342EA0702A7E746EA8C
:1040F000020646EA06464FEA164646EA0106BCBFF5
:1041000046EA0646360C4FF000034FF000024FF02F
:10411000000194E72DE9804C9A46934670B491E8EB
:10412000380007C831EA400C48BF34EA430C03D5D5
:10413000FFF7E6FDFFF780FFF0BCBDE8008C2DE93E
:10414000804C9A46934670B491E8380007C810F046
:10415000804F08BF13F0804F03D100F005F8FFF740
:104160006BFFF0BCBDE8008C20F07F4780EA0300C5
:1041700023F07F4C07EB0C03A3F57C5300F00040C9
:10418000A3F1FE0392F0000F00F0B38095F0000F52
:1041900000F077802DE901494FEA11404FEA1446BB
:1041A00021EA004800FB06FC24EA064708FB06F665
:1041B00007FB08F800FB07F718EB06484CEB164C1A
:1041C0004FEA124B18EB07484FEA15464CEB1740E5
:1041D00022EA0B4E0BFB06FC25EA06470EFB06F611
:1041E00007FB0EFE0BFB07F71EEB064E4CEB164CC7
:1041F0004FF000061EEB074E4CEB174B18EB0B086D
:1042000040F1000018EB0E0B58EB000840F10000E5
:104210008F1A4FF000013CBFC943661B14BFB5EBBA
:10422000040C00213CBFC943F61B4FEA17444EEA79
:104230008E0E27EA04454FEA1C4704FB07622CEA6E
:10424000074C05FB07F70CFB05F604FB0CFC16EB13
:10425000074642EB174216EB0C4642EB1C421BEBA7
:10426000060658EB0202414146EA9E0601D5BDE82A
:104270000189B619524141EB0101A3F10103BDE8E7
:1042800001894FEA14454FEA114724EA054621EA1D
:10429000074C05FB07F406FB07F70CFB06F105FBD3
:1042A0000CFC11EB074144EB17444FEA124711EBAA
:1042B0000C4144EB1C4422EA074C05FB07F206FBC9
:1042C00007F70CFB06F605FB0CFC16EB074642EB6A
:1042D000174216EB0C4642EB1C456A1854F10001DC
:1042E00048BF7047B619524141EB0101A3F10103E8
:1042F000704795F0000F37D04FEA11424FEA14474C
:1043000021EA024624EA074C02FB07F106FB07F705
:104310000CFB06F402FB0CFC14EB074441EB1741C9
:104320004FEA154714EB0C4441EB1C4125EA074CBE
:1043300002FB07F506FB07F70CFB06F602FB0CFC7D
:1043400016EB074645EB174516EB0C4645EB1C42B2
:10435000121951F1000148BF7047B619524141EBA3
:104360000101A3F1010370474FEA14454FEA1147D9
:1043700024EA054621EA074C05FB07F106FB07F78F
:104380000CFB06F24FF0000605FB0CFC12EB07429B
:1043900041EB174112EB0C4251EB1C4148BF7047F7
:1043A000921841EB0101A3F10103704703B4019896
:1043B0004100009850EAC12018BF04204A0D18BFE0
:1043C00040F0010040F2FF72B2EB515F08BF40F0D5
:1043D0000200012808BF052002B07047000000005D
:1043E00010B5B94A2DED020B2DED0C8B82B00F9953
:1043F00021F000409FEDB6CB90422CDBA0F1405362
:104400000E9AA3F17F631A430FD0B349884202DCAE
:1044100016D10E98A0B19DED0E0B02B0BDEC0C8B29
:1044200002B0BDE8104000F087BF0029C1BF9FED7A
:10443000AC0B02B0BDEC0C8B02B0C8BF10BD16E0D7
:104440000120FEF7D6FF02B0BDEC0C8B02B0BDE838
:10445000104000F07DBFA44A9FEDA59B9FEDA6AB49
:1044600090425EDAA6499FEDA8CB814208DBB0EE10
:104470004C0AF0EE6C0A02B0BDEC0C8B02B010BD21
:104480009DED0E0B53EC102B51EC100B01F088FA44
:1044900041EC180B9E480621B0EE480AF0EE680A7F
:1044A000784400F035FE53EC182B51EC100B01F062
:1044B00077FA41EC1B0B9748B0EE480AF0EE680A19
:1044C0000421784400F024FE53EC182B51EC100B1F
:1044D00001F066FA53EC192B00F0C0FF41EC100B11
:1044E00051EC1B0B53EC102B01F06CF841EC100B52
:1044F00053EC102B9DED0E0B51EC100B01F050FA0C
:1045000053EC1A2B01F080FB9DED0E1B53EC112B8D
:1045100001F07AFB53EC1C2B01F076FB41EC100B05
:10452000A9E79FED7D8B9FED7EBB9DED0E0B0029D6
:1045300053EC192B51EC100B52DA00F08FFF53ECB7
:10454000182B01F02DFA41EC180B77480621B0EE3C
:10455000480AF0EE680A784400F0DAFD53EC182BB4
:1045600051EC100B01F01CFA41EC1D0B6F48B0EE42
:10457000480AF0EE680A0421784400F0C9FD53ECC3
:10458000182B51EC100B01F00BFA53EC192B00F027
:1045900065FF41EC190B51EC180B00F005FF41ECE5
:1045A000180B53EC192B51EC1D0B01F00BF853ECCD
:1045B000182B01F0F5F953EC1A2B01F0FDFB41EC3F
:1045C000100B51EC180B53EC102B00F047FF53EC81
:1045D0001B2B01F0E5F953EC1C2B01F015FB6DE0F2
:1045E00001F012FB53EC182B01F0DAF941EC180B37
:1045F00000F0DAFE41EC1A0B00208DED00AB0090CC
:104600009DED000B51EC1A0B53EC102B00F026FF24
:104610009DED000B41EC1C0B53EC102B51EC100BDF
:1046200001F0BEF953EC182B01F0EEFA53EC1C2B01
:1046300000F0C8FF41EC1C0B3D48B0EE480AF0EE1C
:10464000680A0621784400F063FD53EC182B51EC06
:10465000100B01F0A5F941EC1D0B3648B0EE480AED
:10466000F0EE680A0421784400F052FD53EC182B58
:1046700051EC100B01F094F953EC192B00F0EEFE05
:1046800041EC100B51EC1D0B53EC102B00F09AFF7A
:1046900053EC1A2B01F084F953EC1C2B00F0DEFED6
:1046A00041EC100B53EC102B9DED000B51EC100B5B
:1046B00000F0D4FE53EC1B2B01F072F941EC100B0F
:1046C000D9E60000000000000000F03F00000000FC
:1046D000182D4454FB2109400000F07F0000000029
:1046E00000000000000000000000E03F00000000AB
:1046F000000000000000F03F075C143326A6913C48
:104700000000603C00000000182D4454FB21F93FDC
:10471000FC1A00000A1B0000000000000000E03F3F
:104720000000000000000040461A0000541A00007B
:10473000581900006619000070B59B482DED020B5A
:104740002DED068B079D25F00044A04218DC97480C
:10475000844202DC0AD1069840B19DED060BBDEC07
:10476000068B02B0BDE8704000F0E6BD002DCCBF66
:104770009FED8F0B9FED900BBDEC068B02B070BDD3
:104780008F48A04215DD8F48A042D8BF4FF0FF34BC
:1047900058DD9DED060B51EC100BFFF707FE0428CA
:1047A00008BF00F0E5FD9DED060BBDEC068B02B0E9
:1047B00070BD9DED060B51EC100B00F0E9FDCDE94D
:1047C000060181489FED828BA0423CDD8248A042D9
:1047D0001FDD00249FED82AB9DED060B53EC1A2BE1
:1047E00051EC100B00F03AFE9DED060B41EC190B5D
:1047F00053EC1A2B51EC100B01F0D2F853EC182BA0
:1048000001F0DAFA53EC192B00F0DCFECDE90601D9
:1048100049E09DED060B012453EC182B51EC100BD5
:1048200000F01CFE9DED060B41EC190B53EC182B10
:1048300051EC100B01F0C0FA53EC192B00F0C2FE42
:10484000CDE906012FE06848A0421FDD02249FED5C
:10485000689B9DED060B53EC192B51EC100B01F0EE
:104860009FF853EC182B00F0F9FD9DED060B41EC81
:10487000180B53EC192B51EC100B01F09DFA53EC73
:10488000182B00F09FFECDE906010CE09DED060B14
:10489000032453EC102B9FED580B51EC100B00F040
:1048A00091FECDE906019DED060B53EC102B51EC6A
:1048B000100B01F075F841EC180B53EC182B01F0BC
:1048C0006FF841EC190B4E480621B0EE490AF0EEA4
:1048D000690A784400F01CFC53EC182B51EC100BC7
:1048E00001F05EF841EC180B4648B0EE490AF0EED4
:1048F000690A0521784400F00BFC53EC192B51ECAC
:10490000100B01F04DF841EC100B51EC180B53EC6F
:10491000102B002C0EDA00F0A1FD9DED061B53ECD0
:10492000112B01F03DF89DED061B53EC112B01F00E
:104930006BF935E000F092FD9DED061B53EC112B59
:1049400001F02EF841EC100B2F48784400EBC40026
:1049500090ED001B51EC100B53EC112B01F02CFAD5
:104960009DED061B53EC112B01F026FA41EC100BC8
:104970002648784400EBC40090ED001B51EC100B6E
:1049800053EC112B01F040F941EC100B002DA2BFAC
:10499000BDEC068B02B070BD51EC100B00F052FD67
:1049A00041EC100B01E70000000010440000F07F14
:1049B000182D4454FB21F93F182D4454FB21F9BF15
:1049C0000000DC3F0000203E0000F33F000000003C
:1049D000000000000000F03F0000E63F0000000083
:1049E00000000000000000400080034000000000C4
:1049F000000000000000F83F000000000000F0BFD1
:104A00008217000038170000C21600007A16000056
:104A100010B52F499FED2C1B2DED020B84B005988E
:104A200020F000408842D8BF9DED040B2DDD2949C0
:104A3000884209D1049840B94FF00100FEF7D9FC33
:104A400000F086FC06B010BD05DB9DED040B00F008
:104A500073FC06B010BD68469DED040B00F084F8B1
:104A600010F0030004BF9DED021B9DED000B0CD068
:104A700001280ED09DED021B9DED000B022817D0E2
:104A8000012000F0C1FB06B010BD00F089FA06B0AD
:104A900010BD9DED021B9DED000B012000F0B4FB4D
:104AA00051EC100B00F0CEFC06B041EC100B10BD29
:104AB00000F076FA51EC100B00F0C4FC06B041ECAB
:104AC000100B10BD000000000000000000000000FE
:104AD000FB21E93F0000F07F2DED020B019820F053
:104AE000004001909DED000B02B0704700B52DED28
:104AF000048BB0EE409AF0EE609A83B051EC190B43
:104B000001F08EF841EC180B18EE100A18EE901A0E
:104B10008DED008B002818BF0120084320F00040D5
:104B2000C0F17F6000F1E040C00F14D019EE101A00
:104B300019EE900A8DED009B002918BF0121084352
:104B400020F00040C0F17F6000F1E040C00F04BFE2
:104B50000120FEF74EFCB0EE480A03B0F0EE680A02
:104B6000BDEC048B00BD00002DE9F14F04462DED96
:104B7000020B2DED088B8AB09FEDE70B80ED020B49
:104B8000139EE74826F0004585420ADC9DED120B96
:104B9000002084ED000B0AB0BDEC088B03B0BDE82B
:104BA000F08FE0489FEDE0AB9FEDE1BBA84247DD11
:104BB000E14F9FEDE39B9FEDE48B9DED120B53ECDA
:104BC0001A2B51EC100B002E1CDD01F0F5F841EC16
:104BD000100BBD4208D053EC1B2B51EC100B01F015
:104BE000EBF8C4E900010BE053EC192B51EC100B6E
:104BF00001F0E2F853EC182B01F0DEF8C4E90001F3
:104C00000120C8E700F02AFC41EC100BBD4208D09F
:104C100053EC1B2B51EC100B00F020FCC4E90001FD
:104C20000BE053EC192B51EC100B00F017FC53EC7C
:104C3000182B00F013FCC4E900014FF0FF30AAE785
:104C4000C348A84279DB9DED120B51EC100B00F02C
:104C50009FFB41EC180B9FEDC00B53EC102B00F0A9
:104C60009FFE9FEDBF1B53EC112B00F0F7FB00F0F4
:104C700001FE074600F02DFE41EC190B53EC1A2BF8
:104C800000F08EFE53EC182B00F0BEFF41EC180B29
:104C900053EC1B2B51EC190B00F082FEDFF8C8A27D
:104CA00041EC100B4FEA15580125FA4453EC102B38
:104CB00051EC180B01F080F8032DC4E900013DD040
:104CC000C1F30A5005EB4511A8EB000011398142F0
:104CD00034DA0AEB051BB0EE48AA9BED000BF0EEB0
:104CE00068AA53EC102B51EC190B00F059FE41EC63
:104CF0001B0B51EC1A0B53EC1B2B01F05DF841EC34
:104D0000180B51EC1A0B53EC182B01F055F853EC1F
:104D10001B2B01F051F89BED020B41EC1A0B53ECED
:104D2000102B51EC190B00F03BFE53EC1A2B01F049
:104D300043F841EC100B6D1CB8E70EE0002EA8BF45
:104D40003846BFF628AF94ED000B51EC100B00F085
:104D500079FBC4E9000178421DE7C6F3130040F473
:104D6000801EC6F30A50A0F2F530471100F01F056F
:104D7000C5F12000DDF848B00890002006900790AB
:104D80000520EC467949002D07EB0002794408BF65
:104D900051F8221009D051F8223001EB8201AB40CA
:104DA0004A68089922FA01F11943A1FB0E26A1FBDA
:104DB0000B131A449A4234BF0123002303EB060865
:104DC0000CEB8003D3E901A60E448E4234BF0121CF
:104DD000002192448A4411B1924502D903E09245E0
:104DE00001D2012100E00021C3E901A641444CF8B1
:104DF0002010011EA0F10100C4DC029800F1005057
:104E0000850F0298DDE903678000DDF8148000F06B
:104E100060FD41EC1A0B304600F072FD9FED541B13
:104E200053EC112B00F0BCFD41EC1B0B384600F09D
:104E300067FD9FED511B53EC112B00F0B1FD41ECD0
:104E4000180B404600F05CFD9FED4D1B53EC112B01
:104E500000F0A6FD41EC190B51EC180B53EC192B8B
:104E600000F0FCFA53EC1B2B00F0F8FA53EC1A2B71
:104E700000F0F4FACDE90801002008909DED080B40
:104E800053EC1A2B51EC100B00F096FF53EC1B2B3C
:104E900000F092FF53EC182B00F08EFF53EC192B0F
:104EA00000F0B2FE9FED381B53EC112B00F078FDA3
:104EB0009FED370B41EC180B53EC102B9DED080BBD
:104EC00051EC100B00F06CFD53EC182B00F0C6FAFF
:104ED0009FED310B41EC180B53EC102B9DED080BA3
:104EE00051EC100B00F05CFD53EC182B00F0B6FAFF
:104EF00041EC100B139810F0004F06D06D4251ECAE
:104F0000100B00F09FFA41EC100B284684ED000BCB
:104F100041E600000000000000000000000000006A
:104F2000FB21E93F7CD9024000004054FB21F93FBE
:104F30003163621A61B4D03DFB21F93F00000000EB
:104F40000000601A61B4D03D7370032E8A19A33B30
:104F5000FB2139410000000083C8C96D305FE43F88
:104F6000000000000000E03F0A1400005813000099
:104F7000000000000000103E000000000000103C97
:104F8000000000000000103A182D4454FB21F93DA8
:104F90003326A611460B113C00000054FB21F93DBD
:104FA00010B52DED040B2DED088B82B0B0EE419ABB
:104FB000F0EE619A0B9820F000449FED4BABB4F1FA
:104FC000795F11DA9DED0A0B51EC100B00F052FCE9
:104FD000002801BFB0EE4A0AF0EE6A0A02B0BDEC4A
:104FE000088B04BF04B010BD9DED0A0B53EC102BD1
:104FF00051EC100B00F0D4FC41EC180B3C4806219E
:10500000B0EE480AF0EE680A784400F081F853ECFC
:10501000182B51EC100B00F0C3FC9DED0A0B41EC7A
:105020001B0B53EC192B51EC100B00F0B9FC41ECAD
:10503000190B53EC1B2B51EC180B00F0B1FC53EC8B
:10504000192B00F0B9FE9FED2C0B41EC190B53EC22
:10505000102B51EC180B00F0A3FC41EC100B28486E
:10506000844210DA53EC192B51EC100B00F0A4FE23
:1050700053EC1A2B00F0C8FD41EC100B02B0BDEC54
:10508000088B04B010BD1F48A042BCBF9FED1E1B83
:105090008DED001B06DBA4F50010019000200090B0
:1050A0009DED001B51EC100B53EC112B00F084FE16
:1050B0009DED000B41EC180B53EC102B51EC1A0B2F
:1050C00000F07AFE41EC1A0B53EC192B51EC180B43
:1050D00000F072FE53EC1A2B00F096FD41EC100B21
:1050E000CCE7000000000000000000000000F03FDE
:1050F0007C10000000000000000000000000E03F05
:105100003333D33F0000E93F000000000000D23FEE
:1051100070B504462DED028B4D1E00EBC500B0EEC0
:10512000408AF0EE608A90ED000B35F0060017D053
:1051300053EC182B51EC100B00F032FC41EC100B2F
:105140006D1E04EBC50090ED001B51EC100B53ECF1
:10515000112B00F083F941EC100B35F00600E7D17C
:10516000022D36D0042D1CD0062D1CBFBDEC028BA9
:1051700070BD53EC182B51EC100B00F011FC94EDAA
:105180000A1B53EC112B00F069F953EC182B00F0BB
:1051900007FC94ED081B53EC112B00F05FF941EC78
:1051A000100B53EC182B51EC100B00F0F9FB94EDA5
:1051B000061B53EC112B00F051F953EC182B00F0A7
:1051C000EFFB94ED040B53EC102B00F047F941EC8E
:1051D000100B53EC182B51EC100B00F0E1FB94ED8D
:1051E000021B53EC112B00F039F953EC182B00F093
:1051F000D7FB94ED001B53EC112B00F02FF9BDEC05
:10520000028B41EC100B70BD31B504462DED040B43
:105210002DED0A8BB0EE41BAF0EE61BA0B989DED20
:105220000A0B20F00040B0F1795F0DDA51EC100B61
:10523000FFF7BCF8042808BF00F09AF89DED0A0BB0
:10524000BDEC0A8B05B030BD53EC102B51EC100BAC
:1052500000F0A6FB41EC180B9DED0A0B53EC182B4C
:1052600051EC100B00F09CFB41EC190B2C48B0EEFC
:10527000480AF0EE680A05217844FFF749FF9FEDE0
:105280002ACBB0EE40AAF0EE60AA9CB353EC1C2BE4
:1052900051EC190B00F084FB41EC1C0B53EC1A2B66
:1052A00051EC190B00F07CFB9FED210B41EC190B2D
:1052B00053EC102B51EC1B0B00F072FB53EC192B31
:1052C00000F07AFD53EC182B00F06AFB53EC1B2B1B
:1052D00000F072FD53EC1C2B00F06EFD9DED0A1BDF
:1052E00053EC112B00F090FCBDEC0A8B05B041ECA7
:1052F000100B30BDFFE753EC1A2B51EC180B00F0EC
:105300004FFB53EC1C2B00F0A9F853EC192B00F0C9
:1053100047FB9DED0A1B53EC112B00F09FF8E3E7D0
:10532000040F000000000000495555555555C5BFF4
:10533000000000000000E03F10B553EC102B51ECD2
:10534000100B00F08BF841EC100B10BD00000000BA
:105350009FED050B10B553EC102B51EC100B00F02A
:1053600031F941EC100B10BD0000000000000000FE
:105370009FED050B10B553EC102B51EC100B00F00A
:105380000FFB41EC100B10BD0000000000000010EE
:1053900082B0CDE9000121F0004001909DED000BAD
:1053A00002B051EC100B704700B52DED048B83B0AB
:1053B00041EC190B00F034FC41EC180B18EE100A0C
:1053C00018EE901A8DED008B002818BF01200843BD
:1053D00020F00040C0F17F6000F1E040C00F14D029
:1053E00019EE101A19EE900A8DED009B002918BFD6
:1053F0000121084320F00040C0F17F6000F1E0404F
:10540000C00F04BF0120FDF7F4FF51EC180B03B0EF
:10541000BDEC048B00BD000010B500290AD008784F
:10542000002807D005487844FEF7B8FB002801D0D3
:10543000002010BD0248784410BD0000360E000068
:105440002E0E000081F00041704780F00040704750
:1054500021F00041704720F00040704710B591EAFC
:10546000030F48BF83F0004300F1AE84841A71EB50
:10547000030C05D2121943EB0C03001B61EB0C016A
:10548000DFF824E14FEA1154A4EB135C1EEA430F4A
:1054900018BF9EEA445F73D023EA0E03DCF1200EAE
:1054A00021EA045143F4801332D322FA0CFE10EBAC
:1054B0000E0023FA0CFE41EB0E01CCF1200E03FA94
:1054C0000EFE10EB0E0051F10001B1F5801FCCF182
:1054D000200E32D201EB045112FA0EF2BDE8104058
:1054E00058BF7047401C38BF5FEA420218BF704780
:1054F000002814BF20F0010041F100014FEA4103F0
:1055000013F5001F38BF7047A1F1C04100F040BB48
:10551000012A43EB0302ACF1200CDCF11F0E32BF79
:105520004FF0000E23FA0CF310EB030041EB045193
:10553000B4EB115FD0D0A1EB045101F58011490803
:105540005FEA300001EB04510ED350F1000038BF88
:1055500012FA0EFE08D1BDE81040C9E7401C38BF62
:105560005FEA4202CAD1C3E7BDE810404FEA4103F7
:1055700013F5001F38BF7047A1F1C04100F008BB10
:105580009EEA445F08D011EA5E0FBDE8104004BFF8
:1055900001F0004100207047BDE8104070B500F0F8
:1055A000A9FA00BF64FBBE3E0000E0FF491058BFEF
:1055B000C1F140415B1058BFC3F140438B42EFF350
:1055C000008070472DE9C04130B4DFF8A0C23CEA4A
:1055D000111418BF3CEA131400F0EC8081EA0305B3
:1055E0001CEA111444EAD57418BF1CEA131500F024
:1055F000C780A4EB05044FF0004545EAC12145EA08
:10560000C32341EA505143EA525304F17F74994253
:1056100004F500344FEAC0204FEAC22208BF90428E
:1056200000F09C804FEA13650FF24016765D4FEA5A
:10563000134506FB05F7C7F1807706FB07F74FEA2E
:10564000D737A7FB03687642C8F58038A7FB06CE9C
:1056500038BFA8F1010807FB08E64FF0000EA6FBD3
:10566000028CE6FB03CEDCF1000CCEF1004E38BF1D
:10567000AEF1010EA6FB0C584FF000074FF00005ED
:10568000E6FB0E87A1FB08C6A0FB07CE16EB0E06B5
:1056900045F10005E1FB076515F1E04E7EBFA4F57D
:1056A00080345FEA46066D4116F1800745F100053A
:1056B0004FEA17274FEA066647EA0567A6F1DE4676
:1056C000B6F1805F4FEA15251FD9384624F0010C4A
:1056D00005EBC471BCF1FE6F01EB0C1102D8F0BCFC
:1056E000BDE8008124425CBF01F5801E9EEAC47FB4
:1056F00002D4F0BCBDE80081244238D4F0BCA1F152
:10570000C041BDE8004100F043BA4FEAD22242EA6C
:1057100043524FEAD323A7FB02864FEAD02040EA48
:10572000415007FB03661EEA0E0F4FEAD12105FB2D
:10573000026658BFA6EB0056B6EB00564FEA520E73
:105740004EEAC37E18EB0E0E56EB530EBDD518EB8A
:1057500002085E417F1C55F10005B6E74FF4801545
:105760004FF000074FF000064FF00008ADE7F0BC27
:105770004FF0000001F1C04101F00041BDE800819F
:1057800011EA0C1F0CEA131500D00CE013EA0C1FF1
:1057900000F025804FF00000F0BC81EA030101F029
:1057A0000041BDE80081F0BCBDE8004181EA030191
:1057B00000F0EEB9F0BCBDE8004170B500F09AF918
:1057C000097EFC3E00F007B881EA03014FF00000BB
:1057D00001F00041704781EA030100F0D9B9F0BC43
:1057E000BDE800414FF0000021497047FFFDFBF983
:1057F000F7F5F4F2F0EEEDEBE9E8E6E4E3E1E0DE04
:10580000DDDBDAD8D7D5D4D3D1D0CFCDCCCBCAC875
:10581000C7C6C5C4C2C1C0BFBEBDBCBBBAB9B8B79C
:10582000B6B5B4B3B2B1B0AFAEADACABAAA9A8A88F
:10583000A7A6A5A4A3A3A2A1A09F9F9E9D9C9C9B5D
:105840009A99999897979695959493939291919008
:105850008F8F8E8E8D8C8C8B8B8A89898888878799
:105860008685858484838382828181800000FF070E
:105870000000F87F4FEA41034FEA5353A3F58063DA
:10588000D3F11E03C8BFD3F1210C0CDD4FF0004251
:1058900042EAC12242EA505232FA03FC8CEAE17C2D
:1058A000ACEBE1707047102BC4BF0020704703F5CC
:1058B000787CBCF1FF3F04D06FF0004282EA210007
:1058C000704770B500F016F94992248000207047A7
:1058D000F2E710F0004248BF4042B0FA80F310FAFD
:1058E00003F10AD0C3F11D0303F580634FEA415071
:1058F00002EB035202EBD12170474FF000007047DA
:10590000B0FA80F310FA03F10AD0C3F11D0303F5D6
:1059100080634FEA41504FEA035202EBD1217047B6
:105920004FF000007047000051EA030C17D41CF53B
:10593000801F58BFBCF5801F00F10680994218BF38
:10594000704708BF9042704707D711F5801F58BFB6
:1059500013F5801F19D499427047894270471CF58E
:10596000801F08D5BCF5801FF7D58B4218BF704744
:1059700008BF824270474FF4001C1CEB410F38BF38
:105980001CEB430F01D28B42704770B500F0B2F8A8
:10599000922449004FF000514FF08053FFF706BEAC
:1059A000DFF848C170B51CEA111E1EBF1CEA1315B2
:1059B0009EEA0C0F95EA0C0F00F06F8081EA030459
:1059C00023EA4C134EEAD47E21EA4C1141F48011B3
:1059D00043F48013AE44A1FB024CA0FB0365AEF17F
:1059E0007F7E361955EB0C05A1FB034C4CF10003EF
:1059F000A0FB021C16EB0C06654153F100030942A3
:105A000018BF46F0010613F4007F0BD14FEA0331B3
:105A10004FEA0530340341EA155140EA16506FF061
:105A200003020AE04FEAC3214FEAC520F40241EA2B
:105A3000555140EA56506FF0020202EB2E4201EB44
:105A4000025585EACE710AD05FEA440C18BF24F0F3
:105A5000004450F1000041F1000120EAD47040F20E
:105A6000FE7C624500D270BDA84214BF4FF0804456
:105A70004FF04044002E08BF0024BEF1806FA8BF45
:105A8000A1F1C041BDE8704080F282804FF000007B
:105A900001F1C04101F0004170479EEA0C0F0CEA91
:105AA000131518BF95EA0C0F06D04FF0000081EADD
:105AB000030E0EF0004170BD00F01CF88900013E9D
:105AC00000F007B800F009B84FEA430C5FEA5C5CED
:105AD00008D081EA030100F05BB84FEA410C5FEAAD
